:020000040800F2
:10000000B0AB0120E1010008B7500008174F00080D
:10001000B550000815040008A97D00080000000084
:1000200000000000000000000000000073560008FF
:1000300049220008000000005155000875560008CC
:10004000FB010008FB010008FB010008FB010008A0
:10005000FB010008FB010008FB010008FB01000890
:10006000FB010008FB010008FB010008FB01000880
:10007000FB010008FB010008FB0100083122000819
:10008000FB010008FB010008FB010008FB01000860
:10009000FB010008FB010008FB010008FB01000850
:1000A000FB010008FB010008FB010008FB01000840
:1000B000FB010008FB010008FB010008FB01000830
:1000C000FB010008FB010008FB010008FB01000820
:1000D000FB010008FB010008FB010008FB01000810
:1000E000FB010008FB010008FB010008FB01000800
:1000F000FB010008FB010008FB010008FB010008F0
:10010000FB010008FB010008FB010008FB010008DF
:10011000FB010008FB010008FB010008FB010008CF
:10012000FB0100083D220008FB010008FB0100085C
:10013000FB0100080000000000000000FB010008B7
:10014000FB010008FB010008FB010008FB0100089F
:10015000FB010008FB010008FB010008FB0100088F
:10016000FB010008FB010008FB010008FB0100087F
:10017000FB010008B9500008FB0100080000000066
:1001800000000000FB01000800000000000000006B
:10019000FB0100080000000000000000FB01000857
:1001A000000000000000000000000000FB0100084B
:1001B000FB010008FB010008FB010008FB0100082F
:1001C000FB010008DFF810D000F09EF8004800475F
:1001D000AD850008AFF30080B0AB012040BA704796
:1001E0000648804706480047FEE7FEE7FEE7FEE7D1
:1001F000FEE7FEE7FEE7FEE7FEE7FEE749570008F9
:10020000C50100082DE9F05F0546002092469B4697
:1002100088460646814640241BE02846414647461C
:10022000224600F041F853465A46C01A914110D375
:1002300011461846224600F028F82D1A67EB0108EF
:100240004F4622460120002100F01FF817EB00095D
:100250004E41201EA4F10104DFDC484631462A4607
:100260004346BDE8F09FD2B201E000F8012B491EE1
:10027000FBD270470022F6E710B513460A46044643
:100280001946FFF7F0FF204610BD202A04DB203A74
:1002900000FA02F1002070479140C2F1200320FAD9
:1002A00003F3194390407047202A04DB203A21FAD7
:1002B00002F00021704721FA02F3D040C2F120027F
:1002C000914008431946704710B541000CD0C0F367
:1002D000C751962908DC7E2909DC06DB410204D0DF
:1002E00000F0004040F07E5010BD002010BDC1F174
:1002F0009604C4F1200100FA01F1E04000F016F884
:10030000A04010BD00207047064C074D06E0E06895
:1003100040F0010394E8070098471034AC42F6D34C
:10032000FFF754FF808A0008A08A00080029A8BFB0
:100330007047401C490008BF20F00100704710B40E
:10034000B0FA80FC00FA0CF050EA010404BF10BCC3
:10035000704749B1CCF1200421FA04F411FA0CF1F0
:1003600018BF012121430843A3EB0C01CB1D4FEA29
:1003700000614FEA102042BF002010BC704700EB24
:10038000C35010440029A4BF10BC7047401C490052
:1003900008BF20F0010010BC704770B58D1810F830
:1003A000014B14F0030201D110F8012B231106D1E7
:1003B00010F8013B03E010F8016B01F8016B521ECD
:1003C000F9D1ABB110F8012B04F00C048A1A0C2CF3
:1003D00003D0A2EB84129B1C08E010F8014BA2EBA7
:1003E0000422F8E712F8014B01F8014B5B1EF9D526
:1003F000A942D4D3002070BD002070470020704770
:100400000020704700207047002070470020704790
:1004100000207047FEE70000144A136823F0010330
:100420001360134A126801234AB9124A1268C2F3D0
:100430000B02B2F58A6F04BF0F4A136009D00F4A4E
:1004400093609368002BFCD11060106888420AD03A
:1004500007E01368002BFCD1094A1060106888423D
:1004600001D000207047012070470000002000E00C
:10047000002004E00010005C084C025800300240EC
:10048000004C02582DE9F74F9CB006461E980025F7
:10049000D0E9044017901E9880691B901E98C0698F
:1004A00012901E98806802901E98C06801901E9855
:1004B000006B1A901E98C08C16901E98006A1990B6
:1004C0001698002840F36F81D6E9000706F108016D
:1004D0000DF12809D1E900AB1036FFF77FFE804609
:1004E0003846FFF77BFE07465046FFF777FE07903A
:1004F0005846FFF773FE8646B54A08F0FF0009F13B
:10050000020C52F8201012980B18C3F30900ADF832
:1005100028004FEA1821980ACBB2090A52F8233072
:100520001844C0F30903ADF82A300A9B4FEA334A56
:10053000CBB252F8233003EB9023080AC3F309012E
:10054000ADF82C1052F8200000EB9320C0F3090303
:10055000ADF82E300B990CF106034FEA3149810AB0
:10056000F8B252F820000144C1F3090C380AADF882
:1005700030C000F0FF0C000A52F82CC00CEB9121A7
:10058000C1F3090CADF832C0DDF830C04FEA3C4889
:1005900000F0FF0C000A52F82CC00CEB9121C1F3C3
:1005A000090CADF834C052F8200000EB9120C0F3E4
:1005B0000901ADF8361003F10C010D9B4FEA3347EA
:1005C000830A0798C0B252F82000034407984FEA04
:1005D000102CC3F30900ADF83800980A0CF0FF03A3
:1005E00052F8233018444FEA1C23C0F3090C03F0DF
:1005F000FF0BADF83AC052F82BB0DDF838C00BEB6A
:1006000090201B0AC0F3090B21F802BB52F82330DB
:100610004FEA3C4C03EB9020C0F309034FEA902BC8
:100620000EF0FF0021F8023B52F820000F9B83449C
:100630004FEA1E20CBF3090E21F802EB00F0FF0E6B
:100640004FEA334352F82EE00EEB9B2B4FEA102E6D
:10065000CBF3090021F8020B00914FEA9B210EF029
:10066000FF0B4FEA1E2E52F82BB0CDF860E08B4402
:1006700000991098CBF3090EA1F800E0DDF860E0D6
:1006800000994FEA304052F82E2002EB9B22C2F331
:10069000090BA1F802B0920A11991292DFF834B155
:1006A000019A4FEA31412AFB0B22DFF82CB129FBDA
:1006B0000B22DFF828B128FB0B22DFF824B127FB3F
:1006C0000B22DFF820B12CFB0B22DFF81CB123FB3F
:1006D0000B22DFF818B120FB0B224FF4803B21FBEB
:1006E0000B2EDFF80CB1029A2AFB0B22DFF804B1C3
:1006F00029FB0B22DFF800B128FB0B22DFF8FCB04E
:1007000027FB0B224FEA3B4B2CFB0B22DFF8F0B010
:1007100023FB0B22DFF8ECB020FB0B22DFF8E8B064
:1007200021FB0B22019201222AFB02F2DFF8DCA05E
:1007300029FB0A22DFF8D89028FB0922DFF8D480B1
:1007400027FB0822344F2CFB0722DFF8D0C023FB05
:100750000C22334B20FB0320324A21FB0200029083
:10076000AEF5801017992218531A19994FEAE37CB5
:10077000A3FB01470CFB0171002203FB021114F1E2
:10078000004241F1000117904C001A98E10151FB21
:1007900010F01D9920F38F0021F8150016986D1C9C
:1007A000A8423FF791AE1E98029981601E99019868
:1007B000C8601E991298C8611E9804611E99179806
:1007C00048611E991B9888611FB00020BDE8F08F1A
:1007D0002C030020690078004E005B0037004200C7
:1007E00024002D0015001C000A000F000300060065
:1007F00096008800AC00A200BA00B400C000BE00A1
:10080000B400BA00A200AC00880096000600030005
:100810000F000A001C0015002D00240042003700C4
:100820005B004E00780069002DE9F74F9AB004464E
:1008300010690B905069169090691990D0690C90CE
:1008400090680290D06801901546106B1890E88C63
:100850000027002840F3BF81688D0DF13809012879
:1008600000F0CA81C0B200EB40012378625C14F84A
:1008700000C003EB026214F810301B0403EB0C23DE
:1008800002EB0308C0EBC00214F8203014F802C0D9
:1008900014F8122003EB0C6C14F8113014F821102A
:1008A0001E0400EB8003120414F803A014F81330A4
:1008B00006EB0A260CEB060A00EB400C0CEBC00C16
:1008C00014F8306014F80CC01B0406EB0C6C00EB41
:1008D000C006A65D03EB06230CEB030BC0EB001375
:1008E000E35C01EB036100EB800303EBC003E35C1B
:1008F00004EB001402EB03228E1800BFCD4808F071
:10090000FF0150F821200C9911444FEA1822C1F33D
:10091000090302F0FF0CADF8383050F82CC009F193
:1009200002030CEB9121C1F3090CADF83AC0DDF8DC
:1009300038C0120A4FEA3C4902F0FF0C120A50F884
:100940002CC00CEB9121C1F3090CADF83CC050F860
:10095000222002EB9121C1F30902ADF83E200F9A4B
:100960004FEA32480AF0FF0250F8222002EB9121B0
:10097000C1F3090C4FEA1A22ADF840C002F0FF0C97
:10098000120A50F82CC002F0FF0A0CEB9121C1F3BF
:10099000090CADF842C050F82AA0120A0AEB9121C6
:1009A000C1F3090AADF844A050F822200BF0FF0A69
:1009B00002EB9122C2F30901ADF8461050F82AA0CB
:1009C00003F112010AEB922A4FEA1B22CAF3090B28
:1009D000ADF848B002F0FF0B119B50F82BB0DDF8DA
:1009E00040C00BEB9A2A4FEA122BCAF309024FEAD6
:1009F0009A2ACDF830A0ADF84A200BF0FF0A129ADF
:100A000050F82AE0DDF830A04FEA3C4C4FEA33437F
:100A10004FEA3242F2444FEA1B2BCAF3090E21F887
:100A200002EB50F82BB00BEB9A2BCBF3090A21F811
:100A300002AB4FEA9B2BCDF830B006F0FF0BDDF890
:100A40004CA050F82BE0DDF830B0360AF344CBF37D
:100A5000090E21F802EB4FEA9B2BCDF830B006F0DF
:100A6000FF0B4FEA3A4A50F82BE0DDF830B0F34480
:100A70004FEA162ECBF3090621F8026B0091149968
:100A80004FEA31464FEA9B210EF0FF0B4FEA1E2E34
:100A900050F82BB0CDF85CE08B440099CBF3090EF5
:100AA000A1F800E0DDF85CE0009950F82E0000EBC2
:100AB0009B2BCBF3090048804FEA9B2115980C91A2
:100AC000DFF874B101994FEA304029FB0B11DFF8D0
:100AD0006CB128FB0B11DFF868B12CFB0B11DFF8B0
:100AE00064B123FB0B11DFF860B122FB0B11DFF8BF
:100AF0005CB12AFB0B11DFF858B126FB0B114FF448
:100B0000803B20FB0B1EDFF84CB1029929FB0B1137
:100B1000DFF844B128FB0B11DFF840B12CFB0B11BF
:100B2000DFF83CB123FB0B114FEA3B4B22FB0B11CF
:100B3000DFF830B12AFB0B11DFF82CB126FB0B11CB
:100B4000DFF828B120FB0B110191012129FB01F1F4
:100B5000DFF81C9128FB0911DFF818812CFB081124
:100B6000DFF814C123FB0C11444B22FB0311444A50
:100B70002AFB0211434A26FB0211434A20FB0210C2
:100B80000290296AAEF58010A1B10B9A4FF0000CCB
:100B90001318169A16909A1AA2FB0168D31703FB32
:100BA000018102FB0C1116F1004241F100014900E4
:100BB0000B9108461899C00150FB11F0298D20F3C4
:100BC0008F0001FB07F21B997F1C21F81200E88CB3
:100BD000B8423FF741AE0298A8600198E8600C98CF
:100BE000E8610B982861169868611998A8611DB092
:100BF0000020BDE8F08F00BF04F10801D4E9008AAD
:100C0000D1E900B695F83400103410F0200F3FF40D
:100C100075AE4046FFF7E2FA80465046FFF7DEFA2F
:100C200082465846FFF7DAFA83463046FFF7D6FA8F
:100C3000064663E62C030020690078004E005B0046
:100C40003700420024002D0015001C000A000F0090
:100C50000300060096008800AC00A200BA00B400B1
:100C6000C000BE00B400BA00A200AC00880096002C
:100C7000060003000F000A001C0015002D002400D0
:100C8000420037005B004E00780069002DE9F74F05
:100C900014468146D4E9056086B015690490D4E90C
:100CA00002A0D2F81CB00390106B0290D08C009080
:100CB000106A019000984FF00008002843DD00BF43
:100CC00059F8020BFFF78AFA2649C2B2C0F307208F
:100CD00051F8222051F820005A4400EB9221C2F32F
:100CE0000903C1F3090063F30F074FEA912B60F387
:100CF0001F471D494FEA374020FB01A11B4A20FB3B
:100D000002FAA1F5006029188B1B01994FEAE37CD8
:100D1000A3FB01560CFB0161002203FB021115F13C
:100D2000004241F1000106464D000298290451FBA2
:100D300010F0079920F38F0021F81800009808F1AF
:100D400001084045BCDCC4F808A00398C4F81CB0F6
:100D50006661C4E903050498A06109B00020BDE8FC
:100D6000F08F00002C0300200100030003000100AD
:100D70002DE9F74F14460646D4E9045084B04FF0ED
:100D80000008009090690390D4E90290D2F81CA06A
:100D90000290106B0190D08CD2F834B0002852D958
:100DA000608D01285ED0C1B23078725C06EB4106DE
:100DB00000EB02202F49C2B2C0F3072051F82220D5
:100DC00051F82000524400EB9220C2F30903C0F313
:100DD000090163F30F074FEA902A61F31F47264882
:100DE0004FEA374121FB0090244A21FB02F9A0F58C
:100DF00000601BF0100F13D000992A18511A236AB3
:100E00004FEAE17CA1FB035E0CFB03E3002201FB44
:100E1000023115F1004241F100014D0000902846D9
:100E20000104019851FB10F0218D20F38F0001FB8C
:100E300008F2059921F8120008F101001FFA80F864
:100E4000E08C4045ACD8C4F808900298C4F81CA0C7
:100E5000C4E90305009860610398A06107B0002011
:100E6000BDE8F08F56F8020B1BF0200F18BFFFF7FC
:100E7000B5F99FE72C0300200100030003000100E7
:100E80002DE9F74FD2E9041384B0D2F818C0CDF899
:100E90000CC0D2E90256D2F830C0D769CDF808C0EC
:100EA000B2F82680CDF80080D2F820C0CDF804C07A
:100EB0004FF0000CB8F1000FC8BF4FF0000B64DD1D
:100EC0001CF0010F6CD090F8028090F803904FEA6C
:100ED000084808EB092810F8049BC1444FEA9728FA
:100EE000354F09F0FF0A4FEA192957F82AA0D044D4
:100EF000C8F3090A6AF30F0409F0FF0AC9F30729C6
:100F000057F82AA057F829700AEB9828C8F3090A5D
:100F10006AF31F4407EB9827DFF8A0904FEA344AA2
:100F2000C7F309082AFB0969254E2AFB065608EB78
:100F3000480506EB45064FF001082AFB08F8454432
:100F4000A9F5D8584144CB1A01994FEAE379A3FB9C
:100F500001AE09FB01E103FB0B111AF1004341F162
:100F6000000143464900DDF808804FEA813959FB0A
:100F700018F8DDF8149028F38F0829F81C80DDF8A4
:100F800000800CF1010CC4459ADBD761C2E904135F
:100F9000C2E902560398906107B00020BDE8F08FC7
:100FA00090F8038010F8019B4FEA084808EB0928E5
:100FB00010F8019B91E700002C03002001000300C2
:100FC000070006002DE9F74FD2E9055183B0D2F8AA
:100FD00010C00291D2E90267D2F81C80116B019116
:100FE000516B0091D18C0023002988BF4FF0000A7B
:100FF00072D9518D01297CD0C9B210F8119010F826
:1010000001B04FEA094909EB0B2B90F8009001EB76
:101010004101D94400EB0100484909F0FF0B4FEAB8
:10102000192951F82BB00BEB9828C8F3090B6BF377
:101030000F0409F0FF0BC9F3072951F82BB051F841
:1010400029100BEB9828C8F3090B6BF31F4401EB35
:101050009828DFF8EC904FEA344BC8F309012BFBDA
:101060000979384F2BFB076601EB410106EB41077D
:1010700001262BFB06F60E44A9F5D851DDF80090A9
:1010800019F0100F14D08C44ACEB0505D2F820C039
:101090004FEAE579A5FB0CBE09FB0CEC05FB0ACC7D
:1010A0001BF100454CF1000C4FEA4C0C0D4661461B
:1010B0004FEA8139019959FB11F1B2F82890DDF816
:1010C00010B009FB03F921F38F012BF81910591CFB
:1010D0008BB2D18C99428CD8C2F81C80C2E904C56D
:1010E000C2E902670298906106B00020BDE8F08F67
:1010F000FFE7009911F0200F16D013F0010F09D06F
:10110000817890F80390090401EB092110F8049B01
:10111000894481E7C17810F8019B090401EB09219A
:1011200010F8019B894477E7817890F801900904D1
:1011300001EB092110F8039BEAE700002C030020D3
:1011400001000300070006002DE9F74F86B0824634
:1011500008984FF00008D0E9044580690490089889
:10116000D0F81C90D0E902B000900898006B039072
:101170000898C08C01900898006A02900198002895
:1011800069DD00BF5AF8040BFFF728F80146C3B227
:101190003B48090A50F8233003EB9922C2F30903B4
:1011A00063F30F06CBB250F8233003EB92220B0A05
:1011B00003F0FF0CC2F3090150F82CC01B0A0CEB22
:1011C000922250F82300C2F3090C00EB92296CF331
:1011D0000F07C9F3090061F31F4660F31F47294B4E
:1011E000009A4FEA36414FEA374021FB03224FF481
:1011F000803320FB0322244B21FB03B3DFF88CC098
:1012000020FB0C330093012321FB03F1204B20FB37
:10121000031BA2F5804021184A1B02994FEAE27C89
:10122000A2FB01450CFB0151002302FB031114F149
:10123000004241F1000105464C000398610351FB57
:1012400010F0079920F38F0021F81800019808F199
:101250000108404596DC0898C0F808B00899009845
:10126000C8600898C0F81C90089804610898456107
:1012700008990498886109B00020BDE8F08F00004B
:101280002C030020030006000C000A000A000C00DA
:10129000060003002DE9F74F86B00546D2F810B0DE
:1012A00050690090906914460490D4E902A0D2F8E5
:1012B0001C900190106B0390506B0290D08C4FF0FB
:1012C000000800287DD9608D01287BD0C1B201EBD8
:1012D00041002A78285C6B5C02EB006015F8112055
:1012E00005EB8105120402EB032210444649C3B208
:1012F000000A51F8233003EB9922C2F3090363F388
:101300000F06C3B251F8233003EB9223020A02F016
:10131000FF0CC3F3090051F82CC0120A0CEB932305
:1013200051F82210C3F3090C01EB93296CF30F075A
:10133000C9F3090160F31F4661F31F47334B019A5C
:101340004FEA36404FEA374120FB03224FF4803307
:1013500021FB03222E4B20FB03A3DFF8B8C021FBA7
:101360000C330193012320FB03F02B4B21FB030AD9
:101370000299A2F5804011F0100F15D000990BEBE7
:101380000002511A236A4FEAE17CA1FB03BE0CFB69
:1013900003E3002201FB02311BF1004241F1000195
:1013A000490000908B4608464103039851FB10F01A
:1013B000218D20F38F0001FB08F2079921F812001C
:1013C00001E008E016E008F101001FFA80F8E08C67
:1013D00040453FF678AFC4F808A00198C4F81C90C7
:1013E000C4E9030B009860610498A06109B0002073
:1013F000BDE8F08F029955F8040B11F0200F18BFCB
:10140000FEF7ECFE72E700002C030020030006004C
:101410000C000A000A000C00060003002DE9F74F3B
:1014200092B0044614984FF0000AD0E9045680693F
:101430000F901498D0F81CB0806802901498C0687F
:1014400001901498006B10901498C08C0990149817
:10145000006A0E90099800287EDD00BF54F8040B46
:1014600054F8021B0491FEF7B9FE00900498FEF7B1
:10147000B5FE034600995448C9B250F8211001EB5B
:101480009B2C00990A0ACCF3090161F30F074FEA7C
:101490009C2102F0FF0C50F82CC061444FEA122C42
:1014A0000CF0FF0BC1F3090250F82BB04FEA1C2CD3
:1014B0000BEB9121C1F3090B6BF30F0850F82CC013
:1014C00003F0FF0B0CEB912CCCF3090150F82BB07F
:1014D000C3F307230BEB9C2CCCF3090B50F8230030
:1014E0006BF30F0900EB9C2BCBF3090062F31F4752
:1014F00061F31F4860F31F49DFF8D0C0019B4FEA3A
:1015000037424FEA38414FEA394022FB0C33DFF8CB
:10151000C0C021FB0C334FF4803C20FB0C33DFF8C0
:10152000B4E0DDF808C022FB0ECC4FF01B1E21FBFF
:101530000ECCDFF8A4E020FB0ECCCDF804C04FF0B9
:10154000010C22FB0CF2DFF894C021FB0C21244A91
:1015500020FB0210029000E022E0A3F55840291879
:101560008A1B0E994FEAE27CA2FB01560CFB01613B
:10157000002302FB031115F1004241F10001064670
:101580004D001098E90251FB10F0139920F38F00E1
:1015900021F81A0009980AF1010A50453FF75EAF99
:1015A00014990298886014990198C8601498C0F83A
:1015B0001CB0149805611498466114990F988861BD
:1015C00015B00020BDE8F08F2C0300200A000F00AA
:1015D000030006001900150015001900060003009D
:1015E0000F000A002DE9F74F90B0054610690690EC
:1015F00050690B9090690F90D2F81CA090680290EF
:10160000D0680190106B0E901446506B0D90E08CDA
:101610004FF0000900287DD9608D01287BD0C0B231
:1016200000EB40012A786B5C15F800C002EB036206
:1016300015F810301B0403EB0C2302EB030B15F819
:10164000202000EB8000285C05EB410502EB002028
:10165000CDF8100063480BF0FF0250F8222002EB97
:101660009A21C1F309034FEA1B2263F30F06D3B299
:10167000120A50F8233002F0FF0C03EB9123C3F35E
:10168000090150F82CC0120A0CEB9323C3F3090C88
:101690006CF30F0750F82220DDF810C002EB932303
:1016A0000CF0FF0CC3F3090250F82CC061F31F4685
:1016B0000CEB9323DDF810C0C3F3090ACCF3072C1D
:1016C0006AF30F0850F82C0062F31F4700EB932ACF
:1016D000CAF3090060F31F48DFF80CC1019B4FEA11
:1016E00036414FEA37424FEA384021FB0C33DFF8EE
:1016F000FCC022FB0C334FF4803C20FB0C33DFF8A2
:10170000F0B0DDF808C021FB0BCC4FF01B1B22FB17
:101710000BCC01E042E051E0DFF8D8B020FB0BCC6D
:10172000CDF804C04FF0010C21FB0CF1DFF8C8C06C
:1017300022FB0C11314A20FB02100D990290A3F5F7
:10174000584011F0100F15D0069900230A180B9974
:10175000511A226A4FEAE17CA1FB02BE0CFB02E2B5
:1017600001FB03211BF1004241F1000149000691F8
:101770000B900846C1020E9851FB10F0218D20F30A
:101780008F0001FB09F2119921F8120009F1010003
:101790001FFA80F9E08C48453FF63EAF0298A06002
:1017A0000198C4F81CA0E060069820610B98606165
:1017B0000F98A06113B00020BDE8F08F55F804BB6E
:1017C00055F8020B04900D9810F0200F3FF442AF33
:1017D0005846FEF703FD83460498FEF7FFFC04908D
:1017E00038E700002C0300200A000F000300060069
:1017F0001900150015001900060003000F000A006B
:101800002DE9F74F94B0824616984FF00009D0E9C1
:1018100004400F901698806912901698D0F81CB06A
:10182000806802901698C06801901698006B11901D
:101830001698C08C0A901698006A10900A98002892
:101840007EDD00BFFAE802010091FEF7C7FC0490BC
:101850000098FEF7C3FC0146049A6948D2B250F8DA
:10186000222002EB0B0C049A130ACCF3090262F358
:101870000F054FEA9C2203F0FF0C50F82CC0624485
:101880004FEA132C0CF0FF0BC2F3090350F82BB0F6
:101890004FEA1C2C0BEB9222C2F3090B6BF30F06E1
:1018A00050F82CC001F0FF0B0CEB922C50F82BB031
:1018B000CCF309020BEB9C2CCCF3090B090A6BF35C
:1018C0000F0701F0FF0B63F31F4550F82BB062F3D5
:1018D0001F460BEB9C2C4FEA112B0BF0FF0ECCF3A9
:1018E000090150F82EE04FEA1B2B0EEB9C2CCCF399
:1018F000090E50F82B006EF30F0800EB9C2CCCF374
:1019000009004FEA9C2B61F31F4760F31F48DFF883
:10191000F4E0DDF804C04FEA35434FEA36424FEABF
:1019200037414FEA384023FB0ECCDFF8DCE022FBE6
:101930000ECCDFF8D8E021FB0ECC4FF4803E00E067
:1019400048E020FB0ECCCDF800C0DFF8C4E0DDF8A5
:1019500008C023FB0ECC20FB1ECEDFF8B8C022FB54
:101960000CEE21FB1CECCDF804C04FF0010C23FB66
:101970000CF3DFF8A4C022FB0C32284B21FB03211F
:10198000274A20FB0210DDF800C00290ACF50030C1
:101990000F992218531A10994FEAE37CA3FB014ECA
:1019A0000CFB01E1002203FB021114F1004241F1A2
:1019B00000010F904C001198A10251FB10F01599F5
:1019C00020F38F0021F819000A9809F10109484510
:1019D0003FF738AF16990298886016990198C86049
:1019E0001698C0F81CB01698046116990F984861B3
:1019F00016991298886117B00020BDE8F08F00009A
:101A00002C03002015001C000A000F000300060034
:101A10002A00240030002E00060003000F000A00F8
:101A20001C0015002DE9F74F92B00546106905908E
:101A300050690E9090691090D0690790906801905D
:101A4000D06802901446106B0F90E08C4FF0000BA2
:101A5000002840F3DC80608D012800F0E98000EB75
:101A600040012A786B5C15F800C002EB036215F8A0
:101A7000103015F811101B0403EB0C23D618C0EB23
:101A8000C00215F82030AA5C03EB02620B0400EBE5
:101A90008001695C05EBC00503EB01211144039152
:101AA0006C48F1B250F8212007991144C1F30903A1
:101AB000320A63F30F07D3B2120A50F8233002F050
:101AC000FF0C03EB9121C1F3090350F82CC0120A5B
:101AD0000CEB9121C1F3090C6CF30F08DDF80CC07D
:101AE00050F822200CF0FF0C02EB912150F82CC092
:101AF000C1F309020CEB912C0399CCF30906090AF6
:101B000066F30F09CEB263F31F4750F8266062F305
:101B10001F4806EB9C2C0E0A06F0FF0ECCF30901C1
:101B200050F82EE0360A0EEB9C2CCCF3090E50F840
:101B300026006EF30F0A00EB9C2CCCF309004FEA51
:101B40009C2CCDF81CC061F31F4960F31F4A424E24
:101B5000DDF808C04FEA37434FEA38424FEA3941CF
:101B60004FEA3A4023FB06CC3C4E22FB06CC3C4ECF
:101B700021FB06CC4FF4803620FB06CEDFF8E4C014
:101B8000019E23FB0C6620FB1C66DFF8DCC022FBF9
:101B90000C6621FB1C6CCDF808C04FF0010C23FB38
:101BA0000CF3DFF8C8C022FB0C32314B21FB0321C0
:101BB000304A20FB02100190216AAEF50030A1B13D
:101BC000059A4FF0000C13180E9A0E909A1AA2FB69
:101BD000016ED31703FB01E102FB0C1116F1004269
:101BE00041F1000149000591084681020F9851FB1F
:101BF00010F0218D20F38F0001FB0BF213990BF1F4
:101C0000010B21F81200E08C58453FF724AF0198F2
:101C1000A0600298E0600798E061059820610E9846
:101C200060611098A06115B00020BDE8F08F00BF82
:101C3000F5E80260039094F8340010F0200F3FF4B0
:101C40002FAF3046FEF7CAFA06460398FEF7C6FAEB
:101C5000039025E72C03002015001C000A000F004C
:101C6000030006002A00240030002E0006000300B6
:101C70000F000A001C0015002DE9F74F96B04FF039
:101C8000000A1898D0E904401190189880691290C1
:101C90001898C06909901898806801901898C068D1
:101CA00002901898006B14901898C08C0B9018989C
:101CB000006A13900B98002840F3FA80169850F8A9
:101CC000041B50F8042B039250F802BB16900846F0
:101CD000FEF784FA04900398FEF780FA03905846C2
:101CE000FEF77CFA00900498DFF8F0B1C0B25BF820
:101CF0002010099801440498020AC1F3090060F316
:101D00000F05880AD1B25BF821100844110AC0F30C
:101D1000090262F31F45CAB24FEA354C5BF8222034
:101D200002EB9022080AC2F309015BF8200061F37C
:101D30000F0600EB9220C0F3090161F31F460399DF
:101D40004FEA3643C9B25BF8211001EB90200399AA
:101D5000C0F30902090A62F30F07CAB2090A5BF865
:101D6000222001F0FF0E02EB90205BF82EE0090A22
:101D7000C0F309020EEB90205BF82110C0F3090EAE
:101D800001EB9020C0F30901800A099000986EF3DE
:101D90000F08C0B262F31F475BF820E0099861F3B7
:101DA0001F48864400984FEA3742000A0090CEF35D
:101DB000090060F30F090098CDF84090C0B24FEAD7
:101DC00038415BF8200000EB9E2BCBF3090060F359
:101DD0001F494FEA9B2BCDF824B0DFF804E1DDF872
:101DE00008B04FEA39402CFB0EBBDFF8F8E023FBCC
:101DF0000EBBDFF8F4E022FB0EBBDFF8F0E021FBC6
:101E00000EBB4FF4803E20FB0EBBCDF800B0DFF8D8
:101E1000E0E0DDF804B02CFB0EBBDFF8D8E023FBDC
:101E20000EBB4FF04B1E22FB0EBBDFF8CCE021FBBC
:101E30000EBBDFF8C8E020FB0EBBCDF808B04FF0BA
:101E4000010B2CFB0BFCDFF8B8B023FB0BC3DFF856
:101E5000B4C022FB0C322C4B21FB03212B4A20FB6C
:101E60000210DDF800B00190ABF57A30119922181C
:101E7000521A13994FEAE27CA2FB014B0CFB01B111
:101E8000002302FB031114F1004241F10001119003
:101E90004C001498610251FB10F0179920F38F0049
:101EA00021F81A000B980AF1010A50453FF706AFD6
:101EB00018990198886018990298C860189909982B
:101EC000C861189804611899119848611899129876
:101ED000886119B00020BDE8F08F00002C030020BD
:101EE00024002D0015001C000A000F00030006004E
:101EF0003F003700490045004500490037003F00DA
:101F0000060003000F000A001C0015002D0024002D
:101F10002DE9F74F94B0044610690690506910906F
:101F200090691290D069099090680290D0680190F1
:101F30001546106B1190E88C4FF0000A002840F312
:101F40003081688D012800F03D81C0B200EB400176
:101F50002278635C14F800C002EB036214F81030BE
:101F600014F811101B0403EB0C2302EB030BC0EB62
:101F7000C00314F82020E35C02EB03620B0400EBC7
:101F8000800114F801C003EB0C231A44039214F8E7
:101F9000302000EBC000205C04EB410402EB002089
:101FA000CDF8000095480BF0FF0150F82120099969
:101FB0000A44C2F309034FEA1B2163F30F06CBB2B5
:101FC000090A50F8233003EB9222C2F3090363F3AA
:101FD0001F46CBB2090A50F8233050F8211003EB0A
:101FE0009222C2F3090301EB922163F30F07C1F3BD
:101FF000090262F31F47039A4FEA364CD2B24FEA06
:10200000374350F8222002EB9121039AC1F3090EC5
:102010004FEA122B0D9A6EF30F020BF0FF0E50F8E1
:102020002EE00EEB91214FEA1B2EC1F3090B6BF34F
:102030001F420EF0FF0B0D9250F82BB04FEA3242C8
:102040000BEB91214FEA1E2BC1F3090E50F82BB078
:102050006EF30F080BEB912BCBF309014FEA9B2B8F
:10206000CDF824B0DDF800B061F31F480BF0FF0B92
:102070004FEA384150F82BE0DDF824B0F344DDF8A6
:1020800000E04FEA1E2ECDF800E0CBF3090E6EF310
:102090000F09CDF83C90DDF800E04FEA9B290EF0E7
:1020A000FF0B50F82B0000EB090BDDF83C90CBF355
:1020B000090060F31F494FEA9B2BCDF824B0DFF8ED
:1020C00040E1DDF804B04FEA39402CFB0EBBDFF8ED
:1020D00034E123FB0EBBDFF830E122FB0EBBDFF85F
:1020E0002CE121FB0EBB4FF4803E20FB0EBBCDF854
:1020F00000B0DFF81CE1DDF808B02CFB0EBBDFF808
:1021000014E123FB0EBB4FF04B1E22FB0EBBDFF88E
:1021100008E121FB0EBBDFF804E120FB0EBBCDF88C
:1021200004B04FF0010B2CFB0BFCDFF8F4B023FBE9
:102130000BC3DFF8F0C022FB0C323B4B21FB032129
:102140003A4A20FB02100290DDF800B0296AABF594
:102150007A30A1B1069A4FF0000C1318109A9A1A0F
:10216000A2FB01BED31703FB01E102FB0C111BF123
:10217000004241F1000149000691109008464102D9
:10218000119851FB10F0298D20F38F0001FB0AF20A
:1021900015990AF1010A21F81200E88C50453FF721
:1021A000D0AE0298A8600198E8600998E8610698A6
:1021B0002861109868611298A86117B00020BDE8E6
:1021C000F08F00BF54F804BB54F8040B039054F88C
:1021D000020B009095F8340010F0200F3FF4E2AEAF
:1021E0005846FDF7FBFF83460398FDF7F7FF039082
:1021F0000098FDF7F3FF0090D4E600002C030020C8
:1022000024002D0015001C000A000F00030006002A
:102210003F003700490045004500490037003F00B6
:10222000060003000F000A001C0015002D0024000A
:10223000014800F033B8000080910120014800F00F
:102240002DB80000E091012070477047002804BFBE
:102250000120704710B50446407920B90020207154
:10226000204600F005F801206071002010BD00003C
:10227000006881B0A0F18041B1F50C311CBF01B004
:1022800070470548016841F480510160006800F41E
:102290008050009001B070473038024018B40022DE
:1022A0000092816DD1F800C090F85C402023A340DB
:1022B00013EA0C0F04BF18BC7047D0F800C0DCF85C
:1022C00000C01CF0100F04BF18BC70478B60016881
:1022D0000B6813F4802F0DD0096811F4002F05D07E
:1022E000C16B002904BF18BC704715E0416C99B957
:1022F00018BC70470B6813F4807F08D10B6823F07B
:1023000010030B6080F83420012180F83510C16B78
:10231000002904BF18BC704701B010BC084700007A
:1023200070B5044600F02AFA0546002C04BF0120CF
:1023300070BD002684F83460022084F835002068DF
:10234000016821F0010101602068006810F0010FB0
:1023500010D000BF00F012FA401B052805D920203C
:102360006065032084F8350070BD2068006810F0B7
:10237000010FEFD1216808683D4A1040D4E90123DC
:102380001A43D4E9033C43EA0C031A4363691A4332
:10239000A3691A43E3691A43236A1A431043626A22
:1023A000042A03D1D4E90B231A4310430860D4F85C
:1023B00000C0DCF81400012320F00701606A40EA45
:1023C0000102042837D1A16AE06A0A4318B3A5695B
:1023D00055B1B5F5005F14D000291CBF01290229B1
:1023E00021D003291CD026E019B1012905D00229EA
:1023F00021D110F0807F1ED015E0B0F1C07F1AD13E
:1024000011E081B1012907D002290CD0032908BFAE
:10241000B0F1C07F07D00EE010F0807F03D10AE05A
:1024200010F0807F07D04FF04000606584F83530B1
:102430004FF0010070BDCCF8142020680D4AC1B2E5
:10244000A1F11001A2FB01210B4A4FEA111103294E
:10245000525CE2656FF3090088BF001D3F21914087
:10246000A0658160666584F83530002070BD00008D
:102470003F8010F0ABAAAAAA2889000870B490F88F
:102480003450846D4FF0000C012D02BF022070BC4F
:102490007047012580F8345090F835600025012EF2
:1024A0001CBF80F834504FF0020C02D070BC604664
:1024B0007047022680F83560456505682E6826F469
:1024C00080262E6005686B608368402B036803BF1D
:1024D0009A600268D16099601CBF0168CA6090F878
:1024E0005C103F2202FA01F1A16001680A6842F023
:1024F00016020A60016C21B101680A6842F0080204
:102500000A600068016841F001010160CEE7000047
:1025100070B5044600F032F90546B4F1FF3F02D031
:1025200004480078044400F029F9401BA042FAD383
:1025300070BD0000F40100202DE9F84F00220127B2
:10254000844D03264FF00F080B6807FA02FC03EADC
:102550000C03634540F0F7804C68012C18BF022C37
:1025600003D0112C18BF122C1AD1D0F808904FEAC2
:10257000420406FA04FA29EA0A09D1F80CA00AFA78
:1025800004F444EA09048460446824EA0C0C0C79DD
:10259000C4F3001404FA02F444EA0C0CC0F804C0BA
:1025A000D0F80C904FEA420CD1F808A006FA0CF4CF
:1025B00029EA04090AFA0CFA4AEA0909C0F80C9057
:1025C000D1F80490B9F1020F18BFB9F1120F15D16B
:1025D0004FEAD20900EB890ADAF820B04FEA4279D3
:1025E0004FEAD96908FA09FE2BEA0E0BD1F810E080
:1025F0000EFA09F949EA0B09CAF82090D0F80090C0
:1026000029EA040491F8049009F0030909FA0CFC82
:102610004CEA040CC0F800C0D1F804C01CF0805F84
:102620007DD0D5F800C04CF4804CC5F800C0D5F87A
:1026300000C00CF4804CCDF800C022F0030C0CF16B
:10264000804404F59834D4F808984FEA827C4FEA25
:102650001C7C08FA0CFA29EA0A09A0F1804ABAF5AA
:10266000003A30D0A0F1804ABAF5013A08BF4FF0E5
:10267000010A28D0A0F1804ABAF5023A08BF4FF00B
:10268000020A20D0A0F1804ABAF5033A08BF4FF001
:10269000030A18D0A0F1804ABAF5043A08BF4FF0F7
:1026A000040A10D0A0F1804ABAF5053A08BF4FF0ED
:1026B000050A08D0A0F1804ABAF5063A0CBF4FF0DF
:1026C000060A4FF0070A0AFA0CFC4CEA090CC4F897
:1026D00008C8214CD4F800C0D1F804902CEA030CAF
:1026E00019F4803F18BF4CEA030CC4F800C01B4C1F
:1026F000D4F800C0D1F804902CEA030C19F4003F80
:1027000018BF4CEA030CC4F800C0154CD4F800C044
:10271000D1F804902CEA030C19F4801F00E012E0B9
:1027200018BF4CEA030CC4F800C00E4CD4F800C02B
:10273000D1F804902CEA030C19F4001F18BF4CEADE
:10274000030CC4F800C0521C102AFFF4FDAEBDE813
:10275000F88F000044380240003C0140043C014036
:10276000083C01400C3C01400069084018BF0120B2
:102770007047002A08BF09048161704701488068DA
:1027800070470000F401002070470000002804BFDB
:102790000120704770B5044690F84100002630B91A
:1027A00084F8406045486063204600F08BF80220C2
:1027B00084F841002168CA6922F0BF0222F47062E5
:1027C000CA61216808626069022808BF00214DD0F3
:1027D000E06800280CBF10252025A068202898BF9D
:1027E0006D002068A0F18041B1F560511BBFA0F1E0
:1027F0008041B1F570510120022001F0DDF821691E
:10280000B1F5007F1AD0B0FBF5F000EB80006169F4
:102810004000B0FBF1F0401D2949A1FB0010C008A9
:1028200000F00101401A40080902821EFE2A1DD351
:10283000606C40F010006064012070BDE16851B12F
:10284000A900B0FBF1F000EB800061694000B0FB33
:10285000F1F0401DE0E7E900B0FBF1F000EB800093
:1028600061694000B0FBF1F0401DD5E708432269E3
:10287000216810430862D4E901010843A269E168B4
:10288000114301432068C26922F0BF0222F4706242
:10289000114341F40061C161A068302818BFB0281D
:1028A00004D12068C16941F48051C16166644FF070
:1028B000010084F841004FF0000070BD3D4F00085A
:1028C000CDCCCCCC2DE9F04186B000250646009554
:1028D00001950295039504950068A0F18041B1F53A
:1028E00060511CBF06B0BDE8F0813048016841F47A
:1028F0008041016000682E4900F48040059008681E
:1029000040F004000860086800F0040005900868C2
:1029100040F001000860086800F0010005900868B8
:1029200040F0020008600868022400F002000590F0
:102930000820CDE900044FF005086946CDF8108065
:102940001C48FFF7F9FD40270097CDE90145062017
:10295000CDE9035069461848FFF7EEFD4FF44050AB
:102960000090CDE90145CDE9035869461348FFF7CA
:10297000E3FD144C1248A760C4E900050015C4E942
:102980000350400060618000C4E906054FF4403008
:10299000C4E908052046FFF7C3FC002818BFFFF76D
:1029A00054FCB463A66306B0BDE8F0814038024031
:1029B000303802400008024000000240000402409B
:1029C00070600240809101207047000010B50446FD
:1029D0001346A26B0F48D063206800F10C02A06B75
:1029E000FFF74CFD00281CBF012010BD2068C16905
:1029F00011F4806F03D1C16941F48061C161206825
:102A0000416811F0020F03D1416841F002014160B9
:102A1000002010BD194F00082DE9F0410068A0F119
:102A20008041B1F5605118BFBDE8F0812C4CA07811
:102A3000012818BFBDE8F081E08B00F58070E083CD
:102A4000208CE18B274F401A80B23F26DFF8988018
:102A500007F58075782819D805F092FDFFF78EFEEE
:102A60000146208E47F8201002212954401C80B2D4
:102A70002086402808BF2686002204214046FFF712
:102A800078FE207B401C2073BDE8F081E08B174965
:102A9000C0F30D0001EB80014FF400721448FFF702
:102AA00095FFB8B1FFF76AFE0146208E47F8201067
:102AB00003212954401C80B22086402808BF268666
:102AC000002208214046FFF754FEA07B401CA07363
:102AD000BDE8F081606B401C6063BDE8F0810000E0
:102AE000080000204090012000040240400800201F
:102AF00030070020024881680278114481607047E5
:102B0000F40100200B4810B5016841F40071016028
:102B1000016841F480610160016841F480710160E5
:102B2000032000F097F8002000F006F800F024F8E9
:102B3000002010BD003C024070B50D4D04464FF41E
:102B40007A712878B1FBF0F00A490968B1FBF0F01E
:102B500001F048FF48B9102C07D200222146501E30
:102B600000F046F800206C6070BD012070BD0000D0
:102B7000F4010020000200200A4881B0016841F4FD
:102B800080410160006800F48040009006480168C0
:102B900041F080510160006800F08050009001B069
:102BA0007047000044380240403802400028B8BF57
:102BB000704700F01F01012202FA01F14009800074
:102BC00000F1E020C0F88011BFF34F8FBFF36F8F8B
:102BD00070470028B8BF704700F01F01012202FAB9
:102BE00001F14009800000F1E020C0F800117047B9
:102BF000174B10B41B68C3F30223C3F1070CBCF1DD
:102C0000040F88BF4FF0040C1C1D072C34BF002399
:102C1000DB1E012404FA0CFCACF1010C0CEA0101EE
:102C2000994004FA03F35B1E1A40114300284FEA4F
:102C30000111A1BF00F1E02080F8001410BC704722
:102C400000F00F0000F1E02080F8141D10BC704768
:102C50000CED00E0074900F007000A684FF6FF039B
:102C60001A4042EA002040F0FD7040F080600860A9
:102C7000704700000CED00E001220168C0F8FC2361
:102C8000002280F8F423886940F000608861486D74
:102C900040F0030040F08050486510467047000047
:102CA00070B5174D0446B1B1012918BF70BD206839
:102CB000D0F8001E41F00101C0F8001ED4F8040451
:102CC00004F02EF8206A002808BF70BD286840F084
:102CD0000600286070BD206A28B102F0CDFC28688B
:102CE00020F0060028602068D0F8001E21F00101C5
:102CF000C0F8001ED4F80404BDE8704003F095BF8E
:102D000010ED00E0006841620020704770B4036875
:102D1000586A002904BF40EA024098621AD0D3F8EA
:102D200028C000EB1C4C00204C1E18BF4FF48275CD
:102D300009D000BF05EB80069E59401CC0B20CEBC9
:102D4000164C8442F6D84CEA02404FF4807202EBF3
:102D50008101585070BC00207047D0F8040403F083
:102D60009EBEC1EBC10200EB8202D0F80404926C5B
:102D700003F0ECBDC1EBC10200EB8202D0F8040409
:102D8000D2F8082203F049BED0F8040403F089BE4B
:102D900070B5044601F00F02C2EBC20011F0800FC3
:102DA00004EB80004FF001034FF0000519BF00F164
:102DB0003C0180F83D3000F5FE7180F8FD510A704D
:102DC00094F8BC03012804BF022070BD84F8BC3312
:102DD000206804F009FB84F8BC53002070BD70B576
:102DE0000446406801F00F02824284BF012070BD9A
:102DF00011F0800F01F00F00C0EBC00004EB800069
:102E00004FF001034FF0000519BF00F13C0180F8BD
:102E10003D3000F5FE7180F8FD518D700A7094F818
:102E2000BC03012804BF022070BD84F8BC332068B5
:102E300004F0ECFC84F8BC53002070BD10B50446CF
:102E400090F8BC03012804BF022010BD012084F8C3
:102E5000BC0311F0800F05D001F00F01206804F0D1
:102E60006FFE02E0206804F059FE002084F8BC03E5
:102E700010BD01F00F01C1EBC10100EB8100D0F8E2
:102E80001402704770B5044611F0800F01F00F0076
:102E9000C0EBC00104EB81014FF0010C4FF00005C5
:102EA00019BF81F83DC03C3181F8FD5101F5FE713B
:102EB00008708A60CB704A78002A18BFC880022B3D
:102EC00008BF0D7194F8BC03012804BF022070BD37
:102ED00084F8BCC3206804F0B7F9284684F8BC53D2
:102EE00070BD10B58C4601F00F04C4EBC40100EBBB
:102EF0008101C1F81032C1F808220023C1F8143250
:102F000081F8FD3181F8FC41036901F5FE71012B67
:102F100008BF0A611CF00F0F027C006803D004F0A8
:102F2000D1FC002010BD04F0A7FBFAE770B5044601
:102F3000406801F00F020D46824284BF012070BD3F
:102F400015F0800F4FF000064FF0010014BFC2EBE8
:102F5000C201C5EBC50104EB810119BF81F83D0039
:102F60003C3181F8FD6101F5FE7188700A7094F8BA
:102F7000BC23012A04BF022070BD84F8BC03206872
:102F800004F071FC15F00F0F05D1217C04F571726E
:102F9000206804F00DFC84F8BC63002070BD10B5FF
:102FA0008C4601F00F04C4EBC40100EB81010B65FA
:102FB0008A6400234B65012381F83D3001F83C4FC2
:102FC0000369012B08BF0A611CF00F0F027C006827
:102FD00003D004F077FC002010BD04F04DFBFAE7AD
:102FE0002DE9F04F0568044683B0284604F0C8FD7B
:102FF00000281CBF03B0BDE8F08F206804F0ECFD92
:10300000002804BF03B0BDE8F08F206804F0E4FDA1
:1030100010F0020F04D02068416901F00201416103
:10302000206804F0D9FD10F4002F00F0098100267B
:10303000206804F0B0FD07001CBFDFF834A4DFF8FF
:1030400034B400F0FD8000BF17F0010F00F0F480F1
:10305000F1B2206804F0B8FD804610F0010F6ED088
:1030600005EB46110120C1F8080B2068016C00EB4C
:103070004619D9F8080B2269012A06D0FE4A914266
:1030800059D110F4004F27D14FE010F0080F16D09F
:10309000514506D910F4004F03D04FF40040C9F851
:1030A000080B204600F00BFC04F57172012120682A
:1030B00004F07EFB5FF00800C9F8080B3FE010F059
:1030C000200F18BF2020F7D110F0280F37D151451D
:1030D00007D910F4004F04D04FF40040C9F8080B92
:1030E0002DE0C6EBC60104EB8100D9F8102BD0F817
:1030F0000412C2F31202891AC0F81412D0E9811224
:103100001144C0F80812F1B22046FFF733FE002E3A
:1031100004BFD4F81002002811D104F571724FF0E9
:103120000101206804F044FB09E010F0200F1CBFEF
:103130002020C9F8080BF1B22046FFF71BFE18F05B
:10314000080F34D02068D0F8409000EB4610D0F83B
:10315000081B2269012A10D0C74A914516D111F4E3
:10316000004F1CBF4FF40041C0F8081B204600F080
:10317000A6FB2069012815D10EE0D14506D911F42E
:10318000004F1CBF4FF40041C0F8081B204600F060
:1031900096FBD14506D9ECE704F571720121206850
:1031A00004F006FB05EB46100821C0F8081B18F0D8
:1031B000100F04D005EB46101021C0F8081B18F0C2
:1031C000200F0DD02069012805D104F5717201216D
:1031D000206804F0EDFA05EB46102021C0F8081B2A
:1031E00018F4005F28D005EB46114FF40050C1F8E9
:1031F000080BA248BBF8001040F82160FFF7BEFAA8
:1032000001469F4ABBF8000042F820109D4A2F213A
:103210001154401C80B2ABF80000402804BF3F208E
:10322000ABF8000000224FF400719748FFF7A1FAB5
:1032300096480168491C0160761C7F087FF404AF42
:10324000206804F0C9FC10F4802F7DD0206804F0C1
:103250009BFC5FEA00094FF0000675D019F0010FE2
:1032600073D0F1B2206804F09DFC074610F0010F06
:103270002AD006F00F000121D5F8342801FA00F019
:103280008243C5F8342805EB4610C0F808192069B8
:10329000012807D1C6EBC60004EB8000D0E911215C
:1032A00011448164F1B22046FFF75BFD20690128DB
:1032B00002BF002E206D002806D104F571724FF078
:1032C0000101206804F074FA17F0080F05D005EB2F
:1032D00046114FF00800C1F8080917F0100F05D08B
:1032E00005EB46114FF01000C1F8080917F0400F28
:1032F00005D005EB46114FF04000C1F8080917F062
:10330000020F05D005EB46114FF00200C1F8080985
:1033100017F0800F4DD0206802900190C6EBC600D8
:1033200004EB800000F13C07D7E90501814240D859
:10333000401AB9688142C0F0B981C01C4FEA900AB6
:10334000019800EB461B1AE038E032E0A0EB0108E0
:10335000B8684045C0F0AC8108F103004FEA900A1C
:10336000207C00901FFA88F3F2B2F968029804F00A
:10337000F3FCF8684044F860B8694044B861DBF891
:10338000180980B2504524BFD7E90501884201D908
:103390000028DBD1D7E9050188420AD806F00F01E1
:1033A000012088400199D1F8341881430198C0F870
:1033B0003418761C5FEA59097FF450AF206804F096
:1033C0000BFC10F0004F11D0D5F8040820F00101DB
:1033D000C5F8041894F8F40301287CD0204600F0C6
:1033E00052FA2068416901F000414161206804F00F
:1033F000F3FB10F4006F0CD0D5F8080810F0010FA3
:103400001CBF204600F082FA2068416901F4006187
:103410004161206804F0E0FB10F0006F0AD02068E2
:10342000416901F00061416194F8F403F8B120466C
:1034300000F06CFA206804F0CFFB10F4805F7CD0C1
:10344000D5F8040820F00101C5F8041810212068FF
:1034500004F076FB60680021002888BF4FF67F32B9
:1034600028D900BF05EB4110C0F8082910E043E05F
:103470000A30544F380000200A31544F209901205F
:1034800040900120409101200004024040000020B3
:10349000D0F8003923F40013C0F80039C0F8082B25
:1034A000D0F8003B23F40013C0F8003B6068491CCF
:1034B0008842D7D8D5F81C0840F00111C5F81C186F
:1034C000206B0028284625D0D0F8840840F00B0156
:1034D000C5F8841800E007E0D5F8440840F00B0177
:1034E0002846C5F8441823E0002084F8F403014678
:1034F0002046FFF7D5FB74E7012084F8F403206829
:10350000406D0121C0F38300C4F8F8032046FFF7A3
:10351000C7FB8FE7D0F8140842F22B010143C5F82E
:103520001418D5F8100840F00B012846C5F81018FB
:10353000D0F8000820F4FE6100E00CE0C5F80018A7
:10354000217C04F57172206804F032F92068416929
:1035500001F480514161206804F03EFB10F4005FEB
:1035600016D0206803F0BCFE206804F0FDFAE0608D
:1035700000F030FE23680146227B184604F07AFBF7
:10358000204600F069F92068416901F40051416169
:10359000206804F021FB10F0100F35D020688169FD
:1035A00021F0100181612F6A07F00F00C0EBC0000D
:1035B00004EB800000F5FE76C7F34340022802D0FA
:1035C000062811D01BE047F6F070074217D0C7F36A
:1035D0000A1217462846F16804F002FBF0683844E6
:1035E000F060B069384409E0082204F5717128469A
:1035F00004F0F6FAB069C7F30A110844B061206814
:10360000816941F010018161206804F0E5FA10F051
:10361000080F07D0204600F03AF92068416901F010
:1036200008014161206804F0D7FA10F4801F08D027
:103630000021204600F03EF82068416901F4801125
:103640004161206804F0C8FA10F4001F08D000217E
:10365000204600F033F82068416901F4001141610F
:10366000206804F0B9FA10F0804F07D02046FFF729
:1036700074FB2068416901F080414161206804F0D9
:10368000ABFA10F0040F04BF03B0BDE8F08F206860
:10369000456815F0040F1CBF2046FFF775FB206836
:1036A00041682943416003B0BDE8F08F084644E615
:1036B000804651E6D0F8040403F064BAD0F804045C
:1036C00003F062BA002804BF012070472DE9F047DB
:1036D0000446066890F8BD038AB0002520B984F836
:1036E000BC53204600F07CF8032084F8BD03F06B47
:1036F00010F4807F08BF2561206803F0B7FF103405
:10370000B4E8CF118DE8CF1174E80C01CDE90801C0
:1037100094E80F0003F0FEFD0227002848D10021A5
:10372000206804F07DFA6168012600291CBF002092
:10373000CAB22ED0C0EBC00104EB810181F83D601C
:1037400081F83C00A1F8420081F83F504D648D643F
:103750000D65511E401C11F0FF02EBD1616800297C
:103760001CBF0020CAB214D0C0EBC00104EB810121
:1037700081F8FD5181F8FC0181F8FF51C1F8045234
:10378000C1F80852C1F81052511E401C11F0FF023E
:10379000EAD104F1100090E80F178DE80F17D4E973
:1037A0000C01CDE9080194E80F0003F07BFE28B17D
:1037B00084F8BD730AB00120BDE8F08784F8385062
:1037C00084F8BD63606A012804BF2046FFF754FAFD
:1037D000206803F05BFE0AB00020BDE8F08700001F
:1037E00010B586B0002100910191029103910491DE
:1037F0000068A0F18041B1F580211CBF06B010BD6A
:10380000134C206840F0020020602068694600F0F8
:10381000020005904FF440400090022001900320E8
:1038200003900C2004900B48FEF786FE206840F0C1
:10383000005020602068002200F000500590032115
:103840004D20FFF7D5F94D20FFF7C3F906B010BDA5
:10385000303802400004024070B50446C0680125BB
:10386000002808BF002503D0022818BFFEF7EDFC92
:103870002946D4F8040403F0EBF9D4F80404BDE8B5
:10388000704003F0AAB9D0F8040403F0CEB9D0F820
:10389000040403F0D0B910B5044690F8BC03012825
:1038A00004BF022010BD012084F8BC0384F8381046
:1038B000206804F0CDF9002084F8BC0310BDD0F8D6
:1038C000042400F57171104603F0D7B910B5044611
:1038D000006894F8BC13012904BF022010BD012127
:1038E00084F8BC13A16A012906D1A169012903D07A
:1038F000816B41F480318163206803F0BBFD206857
:1039000004F005F9002084F8BC0310BD10B504468E
:10391000D0F8040403F004FA2068D0F8001E41F047
:103920000101C0F8001E206A002808BF10BD03482E
:10393000016841F00601016010BD000010ED00E0DB
:10394000F8B51A48016841F0805101600068184FCD
:1039500000F08050012600903E64FEF70FFF154CEA
:103960000546606810F4803F0AD100BFFEF706FFED
:10397000401BB0F57A7F11D8606810F4803FF5D015
:103980007E64FEF7FBFE0546606810F4003F0BD135
:10399000FEF7F4FE401BB0F57A7F01D90320F8BD95
:1039A000606810F4003FF3D00020F8BD40380240BA
:1039B00000000E4200700040F0B40646DFF8FCC183
:1039C00000207C4C7C4B7E4A7E494FEA6C05012EE0
:1039D00074D0022E6ED0042E1EBF082EF0BC70478D
:1039E000266806F4700637033F0B1CBFF0BC704717
:1039F00036150D2E24BFF0BC7047DFE806F0072215
:103A00003A50224E4E4E3A4E4E4E5300086810F435
:103A1000800F6D48006800F03F000CBFB3FBF0F072
:103A2000BCFBF0F068490A680968C2F30362C1F39D
:103A300088114843B0FBF2F02168C1F30421491C0E
:103A400062E0086810F4800F106800F03F000CBFBF
:103A5000B3FBF0F0BCFBF0F011681268C1F3036136
:103A6000C2F388125043B0FBF1F0216801F01F014E
:103A7000E5E7086810F4800F086800F03F000CBF0D
:103A8000B3FBF0F0BCFBF0F00A680968C2F3027205
:103A9000C1F388114843B0FBF2F0F0BC70472846F0
:103AA000F0BC7047086810F4800F04D1F0BC1846D1
:103AB000704703E03DE0F0BC60467047246814F0B6
:103AC000C0640FD0B4F1007FE9D0B4F1806F1FD093
:103AD000B4F1C06F1CBFF0BC7047086810F4800FD1
:103AE000E9D1E3E7086810F4800F106800F03F00A8
:103AF00014BFBCFBF0F0B3FBF0F01168C1F3881108
:103B000048431168C1F30271B0FBF1F0F0BC70479B
:103B1000086810F4800F086800F03F0014BFBCFB79
:103B2000F0F0B3FBF0F00A680968C2F38812504362
:103B3000E8E7246814F0C0540FD0B4F1006FAED0A1
:103B4000B4F1805F1FD0B4F1C05F1CBFF0BC704700
:103B5000086810F4800FAED1A8E7086810F4800F51
:103B6000106800F03F0014BFBCFBF0F0B3FBF0F0B6
:103B70001168C1F3881148431168F0BCC1F30271A8
:103B8000B0FBF1F07047086810F4800F086800F08F
:103B90003F0014BFBCFBF0F0B3FBF0F00A6809680B
:103BA000C2F388125043C1F30271B0FBF1F0F0BCD4
:103BB000704700008C3802400024F40000007701B8
:103BC0008438024004380240883802402DE9F84F1A
:103BD0000446002700783E4610F0010FFE4D09D044
:103BE0002868A16B20F0C06008432860A06B002803
:103BF00008BF0127207810F0020F09D02868E16B78
:103C000020F0C05008432860E06B002808BF01275F
:103C1000207810F0040F0ED02868216B20F440109B
:103C200008432860206BB0F5801F08BF012702D031
:103C3000002808BF0126207810F0080F0ED0286851
:103C4000616B20F4400008432860606BB0F5800F82
:103C500008BF012702D0002808BF012620784FF0B6
:103C6000000B10F0200F6ED0DC48016841F080514D
:103C700001600068DFF8688300F080500090D8F899
:103C8000000040F48070C8F80000FEF777FD814620
:103C9000D8F8000010F4807F0CD100BFFEF76EFD55
:103CA000A0EB0900022800F2DC81D8F8000010F433
:103CB000807FF3D0DFF82C93D9F8000010F4407027
:103CC0002CD0B4F8401001F44071814226D0D9F8CC
:103CD0000000C549012220F440700A60C1F800B01C
:103CE000C9F80000D9F8000010F0010F16D0FEF757
:103CF00045FD8046D9F8000010F0020F08BF41F2E0
:103D0000883A0BD1FEF73AFDA0EB0800504500F2CF
:103D1000A881D9F8000010F0020FF3D0206C4FF406
:103D2000407131EA0002B1491CBF086820F4F81064
:103D300056D00860D9F80000B4F84010C1F30B0168
:103D40000843C9F80000207810F0100F04D0A849EB
:103D500094F85800C1F8E001207810F0800FA548D1
:103D600005D00168E26C21F4400111430160217823
:103D700011F0400F05D00168A26C21F08061114361
:103D80000160218811F4807F0AD00168626D21F002
:103D9000006111430160616DB1F1006F08BF012640
:103DA000218811F4007F05D00168626C21F08051F8
:103DB000114301602188DFF840A2DFF84092DFF86C
:103DC000408211F4806F09D00168226D21F000510A
:103DD00011430160206DB0F1005F0ED06FB908E0B3
:103DE0000A6820F4407022F4F81220F0704010436A
:103DF0009FE72068B0F5006F7DD1CAF868B0FEF784
:103E0000BDFC0746D8F8000010F0006F0AD000BFD4
:103E1000FEF7B4FCC01B02286ED8D8F8000010F0E2
:103E2000006FF5D12168774811F0010F01D0A26B26
:103E300022B111F0020F17D0E16BA9B90168026835
:103E4000C1F30141491CD4E9013C21F00041C2F316
:103E5000036209EB014141EA026143EA8C13227DCE
:103E6000194341EA02710160216811F0040F03D087
:103E7000226BB2F5801F06D011F0080F21D0616BC4
:103E8000B1F5800F1DD101680268C1F30141491CE1
:103E9000D4E9013C43EA8C1321F0004194F810C0AE
:103EA00009EB014141EA0C61C2F30272194341EA94
:103EB000027101602968A26A21F01F01521E11439C
:103EC0002960218811F4806F1DD0216DB1F1005F50
:103ED00019D101680268C1F30141491CD4E9013CD0
:103EE00043EA8C13D4F80CC0C2F302724FEA5C0CA4
:103EF00009EB0C4C01E02FE0A7E04CEA41611943CB
:103F000041EA02710160218811F4006F0FD0D4E9F9
:103F1000011241EA8211E268237C520809EB024255
:103F200042EA03621143227D41EA027101600120ED
:103F3000CAF86800FEF722FC0746D8F8000010F027
:103F4000006F09D1FEF71AFCC01B02287DD8D8F8F3
:103F5000000010F0006FF5D0E6B3CAF870B0FEF7BD
:103F60000DFC0646D8F8000010F0005F0AD000BF34
:103F7000FEF704FC801B022873D8D8F8000010F06C
:103F8000005FF5D12168204811F0040F01D0226BA9
:103F900022B111F0080F3AD0616BE1B90168D4E9A0
:103FA0000623C1F30141491C42EA831221F000417A
:103FB00094F8243009EB014141EA036111430160A7
:103FC0002968E26A6FF0FF0321F4F85103EB022243
:103FD00011431BE04DE01AE08C38024040380240AB
:103FE0000070004070380240400E474208380240DE
:103FF0000010474294380240000047420000FFFF93
:104000000038024084380240883802402960218804
:1040100011F4807F12D0616DB1F1006F0ED1016893
:10402000D4E9062342EA8312236AC1F303615B08E1
:1040300009EB034343EA0161114301600120CAF81F
:104040007000FEF79BFB044600E00AE0D8F8000091
:1040500010F0005F0DD100BFFEF790FB001B02289F
:1040600002D90320BDE8F88FD8F8000010F0005FF7
:10407000F2D00020BDE8F88F002804BF012070476F
:104080002DE9F0474D4E04460F46306801F0FF0819
:1040900000F00F00B84206D286F80080306800F0C9
:1040A0000F00B84261D12068454D10F0020F14D0C6
:1040B00010F0040F03D0286840F4E0502860207806
:1040C00010F0080F03D0286840F46040286028688A
:1040D000A16820F0F00008432860207810F0010F5C
:1040E00037D060683749012823D0022818BF032839
:1040F000096823D011F0020F37D0296821F003019D
:1041000041EA00002860FEF739FB814628686168B3
:1041100000F00C00B0EB810F18BF41F2883A18D0C4
:10412000FEF72CFBA0EB090050450BD90320BDE89E
:10413000F087096811F4003FDFD116E011F0007F2D
:10414000DBD112E02868616800F00C00B0EB810F51
:10415000E6D1306800F00F00B84209D986F8008037
:10416000306800F00F00B84202D00120BDE8F087AF
:10417000207810F0040F05D02868E16820F4E050A2
:1041800008432860207810F0080F06D028682169BD
:1041900020F4604040EAC100286000F021F829685E
:1041A000094AC1F30311515CC84008490860084836
:1041B0000068FEF7C1FC0020BDE8F087003C02402B
:1041C0000838024000380240308900080002002010
:1041D000F80100200148006870470000000200203C
:1041E000274810B5006810F00C02264808BF10BD23
:1041F0002549042A04BF084610BD244C082A12D0C1
:104200000C2A18BF10BD2268236802F03F0213F485
:10421000800F26D020680023C0F38810A0FB010186
:10422000FBF7F0FF25E02268236802F03F0213F459
:10423000800F08D020680023C0F38810A0FB010184
:10424000FBF7E0FF07E021680023C1F38811A1FB21
:104250000001FBF7D7FF2168C1F30141491C490068
:104260000AE021680023C1F38811A1FB0001FBF7DC
:10427000C9FF2168C1F30271B0FBF1F010BD00006D
:10428000083802400024F40000007701043802409E
:104290002DE9F84F04460078DFF8988310F0010FFD
:1042A0004FF00C06A8F1040562D008F10400016883
:1042B00001F00C01042912D0016801F00C01082959
:1042C00004D1D8F8001011F4800F08D1006836EA44
:1042D00000000DD1D8F8000010F4800F08D0286835
:1042E00010F4003F44D06068002800F0A0813FE057
:1042F0006068B0F5803F19D0B0F5A02F28680CBFDA
:1043000040F4802020F48030286028680CBF40F4FE
:10431000803020F4802028606068B8B1FEF72EFA63
:104320000746286810F4003F05D021E0286840F4D3
:1043300080302860F0E7FEF721FAC01B642800F205
:104340003081286810F4003FF5D011E0FEF716FA2E
:104350000746286810F4003F0AD000BFFEF70EFAA7
:10436000C01B642800F21D81286810F4003FF5D1BD
:104370002078B14F10F0020F4FD0B048016811F013
:104380000C0F1ED0016801F00C01082904BFD8F8F9
:10439000001011F4800F14D0006836EA000004BF4A
:1043A000D8F8000010F4800F0BD0E06818B301209B
:1043B0003860FEF7E3F90646286810F0020F09D0CE
:1043C00011E0286810F0020F1CBFE06801280AD035
:1043D00000F02DB9FEF7D2F9801B02287ED828689C
:1043E00010F0020FF6D02868216920F0F80040EAAA
:1043F000C100286011E000203860FEF7BFF90646D2
:10440000286810F0020F08D0FEF7B8F9801B0228C8
:1044100064D8286810F0020FF6D1207810F0080F49
:104420002AD08748874E616999B101210160FEF762
:10443000A5F98146306810F0020F1DD1FEF79EF9F4
:10444000A0EB0900022849D8306810F0020FF5D01F
:1044500012E000210160FEF791F98146306810F00A
:10446000020F09D0FEF78AF9A0EB0900022835D81F
:10447000306810F0020FF5D1207810F0040F77D0DB
:1044800071484FF0000B006810F0805F0AD16E4851
:10449000016841F08051016000684FF0010B00F0AD
:1044A00080500090694E306810F4807F14D13068DD
:1044B00040F480703060FEF761F98146306810F496
:1044C000807F09D1FEF75AF9A0EB0900022868D8CD
:1044D000306810F4807FF5D05D4E00E061E0A068A8
:1044E00001281BD0052830680CBF40F0040020F0E4
:1044F0000100306030680CBF40F0010020F0040083
:10450000C6F80000A06841F2883AB8B1FEF736F963
:104510008146306810F0020F05D021E0306840F08D
:1045200001003060EEE7FEF729F9A0EB09005045E5
:1045300037D8306810F0020FF5D011E0FEF71EF901
:104540008146306810F0020F0AD000BFFEF716F95E
:10455000A0EB0900504524D8306810F0020FF5D1C7
:10456000BBF1000F04D03848016821F08051016090
:10457000A169E9B33148006800F00C00082856D062
:104580004FF00000022938660ED0FEF7F7F8044617
:10459000286810F0007F47D0FEF7F0F8011B0229D1
:1045A0003ED90320BDE8F88FFEF7E8F806462868F4
:1045B00010F0007F09D000BFFEF7E0F8801B022852
:1045C000EFD8286810F0007FF6D1D4E9070108433E
:1045D000A16A204A490802EB0141626A41EA82115C
:1045E000084394F82C1040EA016194F8300000E090
:1045F0001AE041EA0070C8F8000001203866FEF7B2
:10460000BDF80446286810F0007F0DD1FEF7B6F81B
:10461000001B0228C5D8286810F0007FF6D003E000
:10462000286810F0007FB7D10020BDE8F88F012086
:10463000BDE8F88F043802400000474208380240C5
:10464000800E4742743802404038024000700040FB
:10465000703802400000FFFF70B504004FF0000505
:1046600004BF012070BD94F88100002620B984F8B1
:104670008060204600F0BEF8022084F881002046C9
:1046800000F0AAFF204600F065FF206AB8B120467E
:1046900000F0C4FF216A00EB800040004902B0FB3B
:1046A000F1F05149A1FB0021C9084A4202EB820204
:1046B00000EB42006162082884BF481C60626068A9
:1046C000002818BF0228206C02D0012802D004E084
:1046D000012802D04FF4007000E00020A16849B129
:1046E000012908BF4FF4806504D0022914BF0329B3
:1046F0004FF4006521680B683C4A03EA02020A6035
:10470000626B616841EA0201D4E90E2342EA0302C6
:1047100041EA020141EA0000A16A40EA050040EADC
:104720000100216940EA0100616940EA0100A18CB1
:1047300040EA01512068026841EA020101602068F4
:10474000416821F00F0121F460414160216848680F
:10475000A26940EA0202D4E90B0340EA030042EAFC
:104760000000486020688168214A01EA02018160F6
:10477000E16C606D626C40EA0100216DA2F1010202
:1047800041EA020140EA0101A26C6FF0FF0000EB78
:10479000022241EA020221688B6842EA03028A602F
:1047A0002168CA684FF2200302EA0302CA60D4E912
:1047B000161241EA0201226E00EB0220B4F86420D6
:1047C00040EA024041EA00012068C26841EA020171
:1047D000C160C4F884604FF0010084F8810084F85F
:1047E00080604FF0000070BDCDCCCCCC10C005FF78
:1047F0000080F8FF2DE9F04106460068284986B0A0
:1048000088421CBF06B0BDE8F081264A0025116829
:1048100041B92548036843F480030360006800F44D
:1048200080000590481C106002240094CDE90145E9
:104830000627CDE9035769461C48FDF77DFE082091
:104840000090CDE90145CDE9035769461848FDF7C9
:1048500073FE4FF48068CDF80080CDE90145CDE9C5
:10486000035769461348FDF767FE144C1248C4E924
:104870000005A560C014E560C4E904808000C4E9B7
:1048800006050001C4E908052046FDF749FD00289A
:1048900018BFFDF7DAFC7467A66306B0BDE8F081C7
:1048A00004580140F0010020443802400008024052
:1048B000000002400004024028640240E091012010
:1048C00010B504468C46616F13481346C8632068D0
:1048D000624600F11C01606FFDF7D0FD00281CBF8F
:1048E000012010BD0021204600F0AAFE01462068EC
:1048F0000269114301612068016841F400310160DF
:104900002068016811F4803F03D1016841F48031CF
:104910000160002010BD0000995500082DE9F04706
:1049200000682A49884218BFBDE8F087284CE07922
:10493000002808BFBDE8F087207ADFF8989013259B
:10494000DFF894A009F580763F274FF00108F0B119
:10495000002020724FF40072A6F510611F48FFF787
:10496000AFFF58B3FDF70AFF0146208E49F820102B
:104970003554401C80B2208640281DD00022802162
:104980005046FDF7F6FEA07D401CA07519E084F8A6
:1049900008804FF4007212491048FFF791FF68B188
:1049A000FDF7ECFE0146208E49F820103554401CDE
:1049B00080B220864028E1D12786DFE7608B401C4B
:1049C000608384F80980BDE8F08700000458014046
:1049D00008000020409001200004024078070020D9
:1049E000408C0120411EB1F1807F24BF012070471F
:1049F0004FF0E0204161054AF02182F8141D0021AA
:104A00008161072101610020704700000FE000E094
:104A100090F83C20012A04BF02207047012280F850
:104A20003C20CA688B6822F440721A434B6822F417
:104A300080621A430B6822F400621A430B6922F465
:104A400080521A434B6922F400521A43C96922F476
:104A50008042114302685164002180F83C100846EE
:104A6000704790F83C20012A04BF0220704730B400
:104A7000012380F83C30022280F83D20026854680F
:104A8000D2F808C00D6824F070042C43546002680A
:104A9000A2F18044B4F5803418BFB2F1804F1DD02C
:104AA000A2F18044B4F580641CBFA2F18044B4F547
:104AB000006413D0A2F18044B4F540641CBFA2F19D
:104AC0008044B4F5823409D0A2F18044B4F5A03416
:104AD0001CBFA2F18044B4F5C05405D149682CF044
:104AE000800C41EA0C01916080F83D30002180F893
:104AF0003C1030BC08467047002804BF01207047B6
:104B000010B5044690F83D0028B9002084F83C0018
:104B1000204600F00DF8022084F83D00211D206899
:104B200000F020FE012084F83D00002010BD0000B0
:104B300000B587B000210091019102910391049189
:104B40000068A0F18041B1F582311CBF07B000BD03
:104B50000E48016841F002010160006800F00200A7
:104B600005900B48016841F0040101600068694646
:104B700000F00400059040200090022001900320E6
:104B800004900448FDF7D8FC07B000BD443802404B
:104B9000303802400008024000B587B00021009183
:104BA00001910291039104910068A0F18041B1F557
:104BB00082311CBF07B000BD0A48016841F0040102
:104BC00001600068694600F00400059080200090B4
:104BD00002200190032004900348FDF7ADFC07B0CC
:104BE00000BD0000303802400008024090F83C3020
:104BF000012B04BF022070472DE9F001012480F849
:104C00003C40022380F83D308A4BDFF82CC242B191
:104C1000042A49D0082A7DD00C2A00F0CE8000F06A
:104C2000FFB80268156A25F001051562156A566815
:104C30009769D1F8008027F0730748EA0707D1F891
:104C4000088025F0020548EA05059A4218BF62452A
:104C500007D1D1F80C8025F0080548EA050525F0B4
:104C600004059A4218BF624509D1D1F814C026F450
:104C700040734CEA0303D1F818C04CEA03065660AF
:104C800097614B68536315620268936943F00803A8
:104C900093610268936923F0040393610268936946
:104CA000096943EA010143E00268156A25F010052D
:104CB0001562156A56689769D1F8008027F4E647AF
:104CC00047EA0827D1F8088025F0200545EA0815AD
:104CD0009A4218BF624507D1D1F80C8025F08005B3
:104CE00045EA081525F040059A4218BF624509D1EA
:104CF000D1F814C026F4406343EA8C03D1F818C0FD
:104D000043EA8C06566097614B68936315620268AC
:104D1000936900E00EE043F40063936102689369D5
:104D200023F48063936102689369096943EA01216E
:104D3000916175E00268156A25F480751562166A3E
:104D40005568D769D1F8008027F0730748EA07074C
:104D5000D1F8088026F4007646EA08269A4218BF61
:104D6000624507D1D1F80C8026F4006646EA082691
:104D700026F480669A4218BF624509D1D1F814C062
:104D800025F4405343EA0C13D1F818C043EA0C153C
:104D90005560D7614B68D36316620268D36943F0EC
:104DA0000803D3610268D36923F00403D361026866
:104DB000D369096943EA010131E00268156A25F403
:104DC00080551562176A5568D669D1F8008026F4B7
:104DD000E64646EA0826D1F8088027F4005747EA55
:104DE00008379A4218BF624505D1D1F814C025F49E
:104DF000804343EA8C155560D6614B681364176293
:104E00000268D36943F40063D3610268D36923F471
:104E10008063D3610268D369096943EA0121D161E2
:104E200080F83D404FF0000180F83C10BDE8F001F3
:104E3000084670470000014000040140002804BFFC
:104E40000120704710B5044690F83D0028B90020B5
:104E500084F83C00204600F00CF8022084F83D0065
:104E6000211D206800F07EFC012084F83D00002018
:104E700010BD704701F01F03026801219940136AB9
:104E80008B431362136A194311620168A1F18042D6
:104E9000B2F580321CBFA1F18042B2F5823203D15B
:104EA0004A6C42F400424A640068816801F00701DC
:104EB000062903D0016841F001010160002070471C
:104EC00070B5044690F83C00012804BF022070BD74
:104ED000012584F83C50022084F83D00204600F073
:104EE000A7FC01004FF0000005D084F83D5084F885
:104EF0003C00012070BD2168CA6822F04002CA60EF
:104F00002168CA6822F48042CA6084F83D5084F85F
:104F10003C00002070BDFEE710B50146806BC969FA
:104F200049B901684A6822F002024A6000214185BD
:104F3000012180F84110FDF76FFD10BD30B501680B
:104F4000044683B08868009094F841000125042845
:104F500038D1009810F0010F1CBF486810F0400FC6
:104F600016D0C9682046E26A1180E16A01F10201A7
:104F7000E162618EA1F101016186618E41B9016832
:104F80004A6822F060024A6080F84150FDF71CFD3B
:104F9000009810F0400F15D02068416811F0200FE4
:104FA00010D0416821F0600141602068C1688068CC
:104FB000019084F84150606C40F00200606420462B
:104FC000FDF7E2FB94F8410003281CBF03B030BD9D
:104FD000009810F0020F19D02168486810F0800F77
:104FE00014D0626A20461288CA60616A891C6162B4
:104FF000618D491E6185618D41B901684A6822F061
:10500000A0024A6080F84150FDF706FD009810F0BC
:10501000080F04BF03B030BD2068416811F0200FB5
:1050200004BF03B030BD416821F0A0014160206899
:105030008068009084F84150606C40F00400606427
:105040002046FDF7A1FB03B030BD0000022211464F
:10505000014800F037B800000077010010B50122C8
:105060001049114801F036FC002818BFFDF7EDF893
:105070000E490D4801F083FE002818BFFDF7E5F842
:105080000B49094801F0ACF8002818BFFDF7DDF81E
:10509000054801F088FE002808BF10BDBDE810409B
:1050A000FDF7D3B884010020C49E0120F002002047
:1050B000D4010020FEE770470148FDF791BF0000D2
:1050C00060A101202DE9F84F834621480E004FF0E2
:1050D0000005016892462F4641F480510160006846
:1050E00000F4805000901ABFDFF8688008F198093A
:1050F000BDE8F88F05EB450000EB051008EB8004D8
:1051000028F82070678014486060A4F80AA02681FF
:10511000204600F039F84FF47A70BBFBF0F08102C2
:105120004FF44070B1FBF0F205EB450009EB400194
:105130004A8005228A80072229F81020204600F0A4
:10514000B9F8681CC5B2AE42D4D8BDE8F88F0000EB
:1051500030380240209A0120D6A3707DDFF824C0A9
:10516000536C0C3263451CBF04207047536B13F41F
:10517000807F01D0D36B1847202013F0800F08BF29
:1051800030207047CDB5E8B52DE9F0470027C7605E
:10519000076147618761C761076247628762C762CB
:1051A000076347638763C763076400F10C044764C0
:1051B000DFF8F08006463D4639484146E763FBF795
:1051C0002BF901280CBFC4F83880A563E560656041
:1051D000A5602560A561256165617089208530899C
:1051E000608565633088304BDFF8C0C0012804D08B
:1051F000002818BF022718D02DE01878002804BF17
:105200002B494FF4807026D10A68401E4FEA82581D
:1052100002EA0C0909EB9808C2F30952424441F82A
:10522000042BF1D10120187015E01878012804BF73
:105230001F494FF480700ED10A68401E4FEA825811
:1052400002EA0C0909EB9808C2F30952424441F8FA
:10525000042BF1D11D70708838B1012818BF7F1C54
:1052600003D1606B40F020006063208D012804BFF3
:10527000608D012803D1606B40F04000606370686E
:1052800028B1606B40F01000606370682062A585F3
:105290001FB9606B00F1800060633846BDE8F0879D
:1052A000C2A507F4CDB5E8B52803002000FC0F0027
:1052B0002C03002070B50D462DED028B00F10C047F
:1052C00000F14001406C6A4A002690421EBF042053
:1052D000BDEC028B70BD086820F480720A602888DB
:1052E000052818BF06280BD0072818BF012807D0AB
:1052F000022818BF032803D0042818BF082640D16D
:10530000A38C83423DD022F00F0008602A8840EA37
:10531000020010F0400F08601CBF10F0200F10F0CA
:10532000100F00F00F0016D008282AD2DFE800F096
:10533000290A0C0E100406084E480AE04E4808E000
:105340004E4806E04E4804E04E4802E04E4800E079
:105350004E48E06315E0082813D2DFE800F0120A97
:105360000C0E100406084A48F3E74A48F1E74A4899
:10537000EFE74A48EDE74A48EBE74A48E9E74A4899
:10538000E7E7B4F92C20B5F90400824203D1A28CDE
:105390002B889A4260D010F10C0F04DA6FF00B00EA
:1053A000A880403656E0332803DD3320A8804036FD
:1053B00050E0DFED3E8A097801F00F01B0EE688A17
:1053C000082927D2DFE801F02613181D2204090E50
:1053D000F3EE008A9FED368A1CE0F2EE0C8A9FED18
:1053E000358A17E0F2EE0A8AB2EE008A12E0F2EE97
:1053F000068A9FED318A0DE0F2EE048AB7EE008A4C
:1054000008E0F2EE028A9FED2D8A03E0F1EE0C8AAD
:10541000B4EE008A00EE100AB3EE041AB8EEC00A29
:10542000C0EE010AB2EE040A02F0D2FC20EE088AB5
:105430009FED230A70EE680AB0EE000A02F0C8FC85
:1054400020EE080A02F0F6FFBCEEC00A84ED0C0A5A
:10545000A888A0852888A0846888E0841EB9606B2D
:1054600040F4807060633046BDEC028B70BD00007C
:10547000CDB5E8B58D0C0008810E00084911000873
:105480001D14000801180008791C00088504000894
:10549000710D0008C50F000895120008E5150008F9
:1054A000251A0008111F0008290800080000000044
:1054B0000000804226B4974126B417406F12033F84
:1054C000000000422DE9F0411E4C0E461E4D002208
:1054D00004F1800100EB020C835C9CF801C003F036
:1054E00055070CF05508E75D11F808805B0847EA9E
:1054F00008074FEA5C0CAF5403F055030CF0550C51
:10550000E35C11F80CC043EA0C0305EB020C921C9F
:1055100092B28CF80130B2F5806FDBD30B4F0024D0
:1055200004EB440000EB041007EB800206EB44019F
:105530002819FFF713FE601C84B2022CF0D3002060
:10554000BDE8F08184000020C49A0120209A012047
:1055500070470000C16839B1012908BF102103D08C
:10556000022914BF002120218268032A08BF41F0CC
:1055700001010068044A90421BBF044A904204485B
:10558000044801607047000004580140245801405D
:1055900000580140005C014010B5846BC069B0F553
:1055A000807F14D02068016821F400310160002060
:1055B000A4F86E000146204600F042F8014620683B
:1055C000026922EA01010161012084F8810020467C
:1055D000FFF7A4F910BD00000F4941F658320968E1
:1055E000B1FBF2F1026889000023D2F800C02CF46C
:1055F000803CC2F800C0491E07D2D0F8841041F0A8
:105600004001C0F88410032304E00268126812F419
:10561000803FF0D11846704700020020006806491C
:1056200088421CBF0549884203D14FF00400FEF7B1
:10563000C3B90820FEF7C0B90458014024580140FE
:105640000122012908BF0922416B4068082909D0BD
:10565000032804D002281CBF42F00400704742F027
:1056600060007047032814BF012842F01002F1D1F6
:10567000EEE77047FDF73EBAF0B5ABB000251995DF
:105680001A951B951C9524952595269527955C21A3
:1056900068462895FAF7EEFD2948016841F08051E7
:1056A0000160006800F0805029902648016841F4AC
:1056B000404101600068012600F440402990300418
:1056C000CDE917601827022480011F97CDE91D40FE
:1056D0004FF4AF70CDE920040720229003202390DF
:1056E00017A8FEF7D5FDFEF72BF90F20CDE924040E
:1056F0004FF4A050CDE92650E0022890052124A8BF
:10570000FEF7BAFC40F205100090C020CDE902047B
:105710000820CDE904040197102006907D20079011
:105720000420CDE90804CDE90A0640061590C01111
:105730000C900E956846FEF749FA2BB0F0BD0000BC
:1057400040380240007000400448016841F4700194
:10575000016003494FF000600860704788ED00E089
:1057600008ED00E0F0B402682C4B2D4C2D4D2E4E70
:10577000DFF8B8C0984218BFB0F1804F07D0A04200
:1057800018BFA84203D0B04218BF604504D14F688B
:1057900022F0700247EA0202984218BFB0F1804F2F
:1057A00025D0A04218BFA84221D0B04218BF604502
:1057B0001DD0A0F18044B4F5A0341CBFA0F18044FA
:1057C000B4F5A23413D0A0F18044B4F5A4341CBFC6
:1057D000A0F18044B4F5C05409D0A0F18044B4F5E0
:1057E000E0541CBFA0F18044B4F5005403D1CC6850
:1057F00022F4407222434C6922F08002224302606C
:105800008A68C2620A688262984212BF604509696A
:1058100001634FF001014161F0BC7047000001409D
:105820000004004000080040000C0040000401405B
:1058300002689368D1F804C023F070034CEA0303B4
:10584000D1F800C023F007034CEA030393604A68D1
:1058500012F00F0F59D11211082A56D2DFE802F0C8
:1058600055555555122B41040068D1E90232D1F843
:1058700010C0816843EA0C2321F47F411A4311438D
:10588000816042E00A68052A04BF0120704702686F
:10589000136AD2F820C02CF0010CC2F820C00268B4
:1058A000D2F818C009692CF0F00C4CEA0111916192
:1058B0000068036229E000680B698A68016AD0F811
:1058C00020C02CF0010CC0F820C0D0F818C021F086
:1058D0000A012CF0F00C4CEA0313114383610162BE
:1058E00013E000688A680969036A23F01003036201
:1058F000D0F818C0036A2CF4704C4CEA013123F044
:10590000A00343EA02128161026200207047000096
:105910002DE9F35F032904D0022900F06B8100F028
:105920006DB9BB480078002804BF02B0BDE8F09F05
:105930006024B8480188491C01803920FDF736F9F8
:10594000DFF8D4A2BAF80000B44D2988DFF8D0827D
:10595000401AA8F80000DFF8CC9299F8000001285E
:105960000ED1B1480068406880B2C0F50070C11720
:1059700000EB9170B8F8001001EB9000A8F800005F
:105980003920FDF726F9B8F80000A84F388099F8BB
:10599000001000264FF4805B69B9C0280BD82E8018
:1059A000A7F800B04FF40072A149A248FEF788FFA3
:1059B000012089F80000A0498868A0F51022A2F50E
:1059C0001F52C72A09D89D4B3A8803EB4003A3F521
:1059D0008013A3F51433A3F880209749401C8860F6
:1059E000BAF800002988401A80B2602824D8944868
:1059F000067089F800602E80AAF800B0A8F8006050
:105A000090480670FCF7BAFE904A8F4B118843F815
:105A100021008F4812234354481C80B21080402834
:105A200004BF3F201080002240218A48FCF7A1FEDD
:105A300089480178491C017099F8000001281CBFB1
:105A40007D4804804DD000BF8449854A14F0010090
:105A500008D02B88C3F30C0351F8233013602B8834
:105A60005B1C2B80A04219D22B88C3F30C0351F886
:105A7000233042F820302B885B1C2B802B8802EBD4
:105A8000800CC3F30C0351F82330CCF804302B887E
:105A90005B1C2B80801C80B2A042E5D38321009840
:105AA00001F00AF840B16F4800220178491C0170EA
:105AB00080216848FCF75DFE4FF6FF7000EA840322
:105AC000674A8321009801F034F900287ED06648A7
:105AD00000220178491C017080215E48FCF749FED4
